{
  "contractName": "Transaction",
  "abi": [
    {
      "inputs": [],
      "stateMutability": "nonpayable",
      "type": "constructor"
    },
    {
      "anonymous": false,
      "inputs": [
        {
          "indexed": false,
          "internalType": "address",
          "name": "from",
          "type": "address"
        },
        {
          "indexed": false,
          "internalType": "address",
          "name": "to",
          "type": "address"
        },
        {
          "indexed": false,
          "internalType": "uint256",
          "name": "amount",
          "type": "uint256"
        }
      ],
      "name": "Send",
      "type": "event"
    },
    {
      "inputs": [
        {
          "internalType": "address",
          "name": "",
          "type": "address"
        }
      ],
      "name": "balances",
      "outputs": [
        {
          "internalType": "uint256",
          "name": "",
          "type": "uint256"
        }
      ],
      "stateMutability": "view",
      "type": "function"
    },
    {
      "inputs": [],
      "name": "owner",
      "outputs": [
        {
          "internalType": "address",
          "name": "",
          "type": "address"
        }
      ],
      "stateMutability": "view",
      "type": "function"
    },
    {
      "inputs": [
        {
          "internalType": "address",
          "name": "receiver",
          "type": "address"
        },
        {
          "internalType": "uint256",
          "name": "amount",
          "type": "uint256"
        }
      ],
      "name": "coin",
      "outputs": [],
      "stateMutability": "nonpayable",
      "type": "function"
    },
    {
      "inputs": [
        {
          "internalType": "address",
          "name": "receiver",
          "type": "address"
        },
        {
          "internalType": "uint256",
          "name": "amount",
          "type": "uint256"
        }
      ],
      "name": "send",
      "outputs": [],
      "stateMutability": "nonpayable",
      "type": "function"
    }
  ],
  "bytecode": "0x608060405234801561001057600080fd5b50336000806101000a81548173ffffffffffffffffffffffffffffffffffffffff021916908373ffffffffffffffffffffffffffffffffffffffff160217905550610798806100606000396000f3fe608060405234801561001057600080fd5b506004361061004c5760003560e01c806327e235e314610051578063611091a3146100815780638da5cb5b1461009d578063d0679d34146100bb575b600080fd5b61006b60048036038101906100669190610426565b6100d7565b604051610078919061046c565b60405180910390f35b61009b600480360381019061009691906104b3565b6100ef565b005b6100a5610232565b6040516100b29190610502565b60405180910390f35b6100d560048036038101906100d091906104b3565b610256565b005b60016020528060005260406000206000915090505481565b60008054906101000a900473ffffffffffffffffffffffffffffffffffffffff1673ffffffffffffffffffffffffffffffffffffffff163373ffffffffffffffffffffffffffffffffffffffff161461017d576040517f08c379a00000000000000000000000000000000000000000000000000000000081526004016101749061057a565b60405180910390fd5b789f4f2726179a224501d762422c946590d9100000000000000081106101d8576040517f08c379a00000000000000000000000000000000000000000000000000000000081526004016101cf906105e6565b60405180910390fd5b80600160008473ffffffffffffffffffffffffffffffffffffffff1673ffffffffffffffffffffffffffffffffffffffff16815260200190815260200160002060008282546102279190610635565b925050819055505050565b60008054906101000a900473ffffffffffffffffffffffffffffffffffffffff1681565b600160003373ffffffffffffffffffffffffffffffffffffffff1673ffffffffffffffffffffffffffffffffffffffff168152602001908152602001600020548111156102d8576040517f08c379a00000000000000000000000000000000000000000000000000000000081526004016102cf906106d7565b60405180910390fd5b80600160003373ffffffffffffffffffffffffffffffffffffffff1673ffffffffffffffffffffffffffffffffffffffff168152602001908152602001600020600082825461032791906106f7565b9250508190555080600160008473ffffffffffffffffffffffffffffffffffffffff1673ffffffffffffffffffffffffffffffffffffffff168152602001908152602001600020600082825461037d9190610635565b925050819055507f93eb3c629eb575edaf0252e4f9fc0c5ccada50496f8c1d32f0f93a65a8257eb53383836040516103b79392919061072b565b60405180910390a15050565b600080fd5b600073ffffffffffffffffffffffffffffffffffffffff82169050919050565b60006103f3826103c8565b9050919050565b610403816103e8565b811461040e57600080fd5b50565b600081359050610420816103fa565b92915050565b60006020828403121561043c5761043b6103c3565b5b600061044a84828501610411565b91505092915050565b6000819050919050565b61046681610453565b82525050565b6000602082019050610481600083018461045d565b92915050565b61049081610453565b811461049b57600080fd5b50565b6000813590506104ad81610487565b92915050565b600080604083850312156104ca576104c96103c3565b5b60006104d885828601610411565b92505060206104e98582860161049e565b9150509250929050565b6104fc816103e8565b82525050565b600060208201905061051760008301846104f3565b92915050565b600082825260208201905092915050565b7f6f6e6c79204f776e657200000000000000000000000000000000000000000000600082015250565b6000610564600a8361051d565b915061056f8261052e565b602082019050919050565b6000602082019050818103600083015261059381610557565b9050919050565b7f546f206d75636820616d6f756e74000000000000000000000000000000000000600082015250565b60006105d0600e8361051d565b91506105db8261059a565b602082019050919050565b600060208201905081810360008301526105ff816105c3565b9050919050565b7f4e487b7100000000000000000000000000000000000000000000000000000000600052601160045260246000fd5b600061064082610453565b915061064b83610453565b9250827fffffffffffffffffffffffffffffffffffffffffffffffffffffffffffffffff038211156106805761067f610606565b5b828201905092915050565b7f4e6f74206d6f6e65790000000000000000000000000000000000000000000000600082015250565b60006106c160098361051d565b91506106cc8261068b565b602082019050919050565b600060208201905081810360008301526106f0816106b4565b9050919050565b600061070282610453565b915061070d83610453565b9250828210156107205761071f610606565b5b828203905092915050565b600060608201905061074060008301866104f3565b61074d60208301856104f3565b61075a604083018461045d565b94935050505056fea2646970667358221220e34b77ebb7cad1e3d5b082a4dbfe32e8ceb745eaa3c53be9472008aadac6d0bb64736f6c634300080a0033",
  "immutableReferences": {},
  "source": "// SPDX-License-Identifier: MIT\npragma solidity >=0.5.0 <0.9.0;\n\ncontract Transaction {\n address public owner;\n mapping (address => uint) public balances;\n event Send(address from,address to,uint amount);\n\n constructor() {\n   owner = msg.sender;\n }\n\n function coin(address receiver,uint amount)public {\n   require (msg.sender == owner, \"only Owner\");\n   require (amount < 1e60, \"To much amount\");\n   balances[receiver]  += amount;\n }\n\n function send(address receiver, uint amount) public {\n   require (amount <= balances[msg.sender], \"Not money\");\n   balances[msg.sender] -= amount;\n   balances[receiver] += amount;\n   emit Send(msg.sender, receiver, amount);\n }\n}\n",
  "sourcePath": "C:\\Users\\123\\lessons solidity\\SimpleFinance\\contracts\\Transaction.sol",
  "compiler": {
    "name": "solc",
    "version": "0.8.10+commit.fc410830.Emscripten.clang"
  },
  "schemaVersion": "3.4.4",
  "updatedAt": "2022-01-07T18:19:25.501Z",
  "devdoc": {
    "kind": "dev",
    "methods": {},
    "version": 1
  },
  "userdoc": {
    "kind": "user",
    "methods": {},
    "version": 1
  }
}