{
  "contractName": "Dice",
  "abi": [
    {
      "inputs": [],
      "name": "winner",
      "outputs": [
        {
          "internalType": "string",
          "name": "",
          "type": "string"
        },
        {
          "internalType": "uint256",
          "name": "",
          "type": "uint256"
        }
      ],
      "stateMutability": "view",
      "type": "function",
      "constant": true
    }
  ],
  "bytecode": "0x608060405234801561001057600080fd5b50610473806100206000396000f3fe608060405234801561001057600080fd5b506004361061002b5760003560e01c8063dfbf53ae14610030575b600080fd5b61003861004f565b604051610046929190610250565b60405180910390f35b606060008061005e6000610147565b9050600061006c6001610147565b9050808211156100b957816040518060400160405280600f81526020017f57696e6e657220706c617965722031000000000000000000000000000000000081525090935093505050610143565b8082101561010457806040518060400160405280600e81526020017f57696e6e657220706c617965723200000000000000000000000000000000000081525090935093505050610143565b816040518060400160405280600481526020017f6472617700000000000000000000000000000000000000000000000000000000815250909350935050505b9091565b600080600a4233856040516020016101619392919061031b565b6040516020818303038152906040528051906020012060001c6101849190610387565b905060028161019391906103e7565b905080915050919050565b600081519050919050565b600082825260208201905092915050565b60005b838110156101d85780820151818401526020810190506101bd565b838111156101e7576000848401525b50505050565b6000601f19601f8301169050919050565b60006102098261019e565b61021381856101a9565b93506102238185602086016101ba565b61022c816101ed565b840191505092915050565b6000819050919050565b61024a81610237565b82525050565b6000604082019050818103600083015261026a81856101fe565b90506102796020830184610241565b9392505050565b6000819050919050565b61029b61029682610237565b610280565b82525050565b600073ffffffffffffffffffffffffffffffffffffffff82169050919050565b60006102cc826102a1565b9050919050565b60008160601b9050919050565b60006102eb826102d3565b9050919050565b60006102fd826102e0565b9050919050565b610315610310826102c1565b6102f2565b82525050565b6000610327828661028a565b6020820191506103378285610304565b601482019150610347828461028a565b602082019150819050949350505050565b7f4e487b7100000000000000000000000000000000000000000000000000000000600052601260045260246000fd5b600061039282610237565b915061039d83610237565b9250826103ad576103ac610358565b5b828206905092915050565b7f4e487b7100000000000000000000000000000000000000000000000000000000600052601160045260246000fd5b60006103f282610237565b91506103fd83610237565b9250827fffffffffffffffffffffffffffffffffffffffffffffffffffffffffffffffff03821115610432576104316103b8565b5b82820190509291505056fea2646970667358221220961c7aaf1a4e977f4314403f623f2c486f83b70d64d7374c351971d1810daf3f64736f6c634300080a0033",
  "immutableReferences": {},
  "source": "// SPDX-License-Identifier: MIT\npragma solidity >=0.4.22 <0.9.0;\n\ncontract Dice {\n  function getRandomNumber(uint number) private view returns(uint){\n    uint brosok = uint(keccak256(abi.encodePacked(block.timestamp, msg.sender, number))) % 10;\n    brosok = brosok + 2;\n    return (brosok);\n  }\n\n  function winner() public view  returns(string memory, uint){\n    uint player1 = getRandomNumber(0);\n    uint player2 = getRandomNumber(1);\n    if(player1 > player2)\n       return ('Winner player 1', player1);\n    else if (player1 < player2)\n      return ('Winner player2',player2  );\n    else return('draw', player1);\n  }\n\n \n}\n",
  "sourcePath": "C:\\Users\\123\\lessons solidity\\SimpleGames\\contracts\\Dice.sol",
  "compiler": {
    "name": "solc",
    "version": "0.8.10+commit.fc410830.Emscripten.clang"
  },
  "schemaVersion": "3.4.4",
  "updatedAt": "2022-01-06T16:24:10.645Z",
  "networkType": "ethereum",
  "devdoc": {
    "kind": "dev",
    "methods": {},
    "version": 1
  },
  "userdoc": {
    "kind": "user",
    "methods": {},
    "version": 1
  }
}