{
  "contractName": "DragonForge",
  "abi": [
    {
      "anonymous": false,
      "inputs": [
        {
          "indexed": false,
          "internalType": "uint256",
          "name": "id",
          "type": "uint256"
        },
        {
          "indexed": false,
          "internalType": "string",
          "name": "name",
          "type": "string"
        },
        {
          "indexed": false,
          "internalType": "uint256",
          "name": "dna",
          "type": "uint256"
        }
      ],
      "name": "NewDragon",
      "type": "event"
    },
    {
      "inputs": [
        {
          "internalType": "string",
          "name": "name",
          "type": "string"
        }
      ],
      "name": "createDragon",
      "outputs": [],
      "stateMutability": "nonpayable",
      "type": "function"
    },
    {
      "inputs": [
        {
          "internalType": "uint256",
          "name": "",
          "type": "uint256"
        }
      ],
      "name": "dragonOwner",
      "outputs": [
        {
          "internalType": "address",
          "name": "",
          "type": "address"
        }
      ],
      "stateMutability": "view",
      "type": "function",
      "constant": true
    },
    {
      "inputs": [
        {
          "internalType": "uint256",
          "name": "",
          "type": "uint256"
        }
      ],
      "name": "dragons",
      "outputs": [
        {
          "internalType": "uint256",
          "name": "id",
          "type": "uint256"
        },
        {
          "internalType": "string",
          "name": "name",
          "type": "string"
        },
        {
          "internalType": "uint256",
          "name": "dna",
          "type": "uint256"
        }
      ],
      "stateMutability": "view",
      "type": "function",
      "constant": true
    },
    {
      "inputs": [
        {
          "internalType": "string",
          "name": "name",
          "type": "string"
        },
        {
          "internalType": "uint256",
          "name": "id",
          "type": "uint256"
        },
        {
          "internalType": "uint256",
          "name": "food",
          "type": "uint256"
        }
      ],
      "name": "reforg",
      "outputs": [],
      "stateMutability": "payable",
      "type": "function",
      "payable": true
    }
  ],
  "bytecode": "0x608060405234801561001057600080fd5b50610bff806100206000396000f3fe60806040526004361061003f5760003560e01c80636775f77114610044578063b00bb9d51461006d578063b9a63a34146100aa578063d2a59d69146100c6575b600080fd5b34801561005057600080fd5b5061006b60048036038101906100669190610714565b610105565b005b34801561007957600080fd5b50610094600480360381019061008f9190610793565b6102b6565b6040516100a19190610801565b60405180910390f35b6100c460048036038101906100bf919061081c565b6102e9565b005b3480156100d257600080fd5b506100ed60048036038101906100e89190610793565b61040b565b6040516100fc93929190610922565b60405180910390f35b6000610110826104cd565b90506000600260003373ffffffffffffffffffffffffffffffffffffffff1673ffffffffffffffffffffffffffffffffffffffff168152602001908152602001600020549050600060405180606001604052808381526020018581526020018481525090806001815401808255809150506001900390600052602060002090600302016000909190919091506000820151816000015560208201518160010190805190602001906101c2929190610517565b50604082015181600201555050336001600083815260200190815260200160002060006101000a81548173ffffffffffffffffffffffffffffffffffffffff021916908373ffffffffffffffffffffffffffffffffffffffff1602179055507f094a968afe62c9f0ce8d6395ff90deb5cbe7809a9ea66019ef5c61335ab3f11781848460405161025493929190610922565b60405180910390a1600260003373ffffffffffffffffffffffffffffffffffffffff1673ffffffffffffffffffffffffffffffffffffffff16815260200190815260200160002060008154809291906102ac9061098f565b9190505550505050565b60016020528060005260406000206000915054906101000a900473ffffffffffffffffffffffffffffffffffffffff1681565b6000341161032c576040517f08c379a000000000000000000000000000000000000000000000000000000000815260040161032390610a24565b60405180910390fd5b60008160405160200161033f9190610a44565b6040516020818303038152906040528051906020012060001c9050662386f26fc100008161036d9190610a8e565b905060006002828561037f9190610abf565b6103899190610b15565b9050600060405180606001604052808681526020018781526020018381525090806001815401808255809150506001900390600052602060002090600302016000909190919091506000820151816000015560208201518160010190805190602001906103f7929190610517565b506040820151816002015550505050505050565b6000818154811061041b57600080fd5b906000526020600020906003020160009150905080600001549080600101805461044490610b75565b80601f016020809104026020016040519081016040528092919081815260200182805461047090610b75565b80156104bd5780601f10610492576101008083540402835291602001916104bd565b820191906000526020600020905b8154815290600101906020018083116104a057829003601f168201915b5050505050908060020154905083565b600080826040516020016104e19190610ba7565b6040516020818303038152906040528051906020012060001c9050662386f26fc100008161050f9190610a8e565b915050919050565b82805461052390610b75565b90600052602060002090601f016020900481019282610545576000855561058c565b82601f1061055e57805160ff191683800117855561058c565b8280016001018555821561058c579182015b8281111561058b578251825591602001919060010190610570565b5b509050610599919061059d565b5090565b5b808211156105b657600081600090555060010161059e565b5090565b6000604051905090565b600080fd5b600080fd5b600080fd5b600080fd5b6000601f19601f8301169050919050565b7f4e487b7100000000000000000000000000000000000000000000000000000000600052604160045260246000fd5b610621826105d8565b810181811067ffffffffffffffff821117156106405761063f6105e9565b5b80604052505050565b60006106536105ba565b905061065f8282610618565b919050565b600067ffffffffffffffff82111561067f5761067e6105e9565b5b610688826105d8565b9050602081019050919050565b82818337600083830152505050565b60006106b76106b284610664565b610649565b9050828152602081018484840111156106d3576106d26105d3565b5b6106de848285610695565b509392505050565b600082601f8301126106fb576106fa6105ce565b5b813561070b8482602086016106a4565b91505092915050565b60006020828403121561072a576107296105c4565b5b600082013567ffffffffffffffff811115610748576107476105c9565b5b610754848285016106e6565b91505092915050565b6000819050919050565b6107708161075d565b811461077b57600080fd5b50565b60008135905061078d81610767565b92915050565b6000602082840312156107a9576107a86105c4565b5b60006107b78482850161077e565b91505092915050565b600073ffffffffffffffffffffffffffffffffffffffff82169050919050565b60006107eb826107c0565b9050919050565b6107fb816107e0565b82525050565b600060208201905061081660008301846107f2565b92915050565b600080600060608486031215610835576108346105c4565b5b600084013567ffffffffffffffff811115610853576108526105c9565b5b61085f868287016106e6565b93505060206108708682870161077e565b92505060406108818682870161077e565b9150509250925092565b6108948161075d565b82525050565b600081519050919050565b600082825260208201905092915050565b60005b838110156108d45780820151818401526020810190506108b9565b838111156108e3576000848401525b50505050565b60006108f48261089a565b6108fe81856108a5565b935061090e8185602086016108b6565b610917816105d8565b840191505092915050565b6000606082019050610937600083018661088b565b818103602083015261094981856108e9565b9050610958604083018461088b565b949350505050565b7f4e487b7100000000000000000000000000000000000000000000000000000000600052601160045260246000fd5b600061099a8261075d565b91507fffffffffffffffffffffffffffffffffffffffffffffffffffffffffffffffff8214156109cd576109cc610960565b5b600182019050919050565b7f50617920666f7220666f6f640000000000000000000000000000000000000000600082015250565b6000610a0e600c836108a5565b9150610a19826109d8565b602082019050919050565b60006020820190508181036000830152610a3d81610a01565b9050919050565b6000602082019050610a59600083018461088b565b92915050565b7f4e487b7100000000000000000000000000000000000000000000000000000000600052601260045260246000fd5b6000610a998261075d565b9150610aa48361075d565b925082610ab457610ab3610a5f565b5b828206905092915050565b6000610aca8261075d565b9150610ad58361075d565b9250827fffffffffffffffffffffffffffffffffffffffffffffffffffffffffffffffff03821115610b0a57610b09610960565b5b828201905092915050565b6000610b208261075d565b9150610b2b8361075d565b925082610b3b57610b3a610a5f565b5b828204905092915050565b7f4e487b7100000000000000000000000000000000000000000000000000000000600052602260045260246000fd5b60006002820490506001821680610b8d57607f821691505b60208210811415610ba157610ba0610b46565b5b50919050565b60006020820190508181036000830152610bc181846108e9565b90509291505056fea2646970667358221220224179b03a0a9bf40db1bec4954c14802548ecfa09ac12151547b260692ffb2c64736f6c634300080a0033",
  "immutableReferences": {},
  "source": "// SPDX-License-Identifier: MIT\npragma solidity >=0.4.22 <0.9.0;\n\nimport \"./DragonFarm.sol\";\ncontract DragonForge is DragonFarm {\n   function reforg(string memory name, uint id, uint food) public payable {\n     require(msg.value > 0, \"Pay for food\");\n     uint brains = uint(keccak256((abi.encode(food))));\n     brains = brains % (10 ** 16);\n     uint newDna = (id + brains) / 2;\n     dragons.push(Dragon(id,name, newDna));\n   }\n}\n",
  "sourcePath": "C:\\Users\\123\\lessons solidity\\SimpleGames\\contracts\\DragonForge.sol",
  "compiler": {
    "name": "solc",
    "version": "0.8.10+commit.fc410830.Emscripten.clang"
  },
  "schemaVersion": "3.4.4",
  "updatedAt": "2022-01-06T16:24:13.103Z",
  "networkType": "ethereum",
  "devdoc": {
    "kind": "dev",
    "methods": {},
    "version": 1
  },
  "userdoc": {
    "kind": "user",
    "methods": {},
    "version": 1
  }
}