{
  "contractName": "RLottery",
  "abi": [
    {
      "inputs": [
        {
          "internalType": "uint256",
          "name": "",
          "type": "uint256"
        }
      ],
      "name": "playeres",
      "outputs": [
        {
          "internalType": "uint256",
          "name": "num",
          "type": "uint256"
        }
      ],
      "stateMutability": "view",
      "type": "function",
      "constant": true
    },
    {
      "inputs": [
        {
          "internalType": "uint256",
          "name": "Num",
          "type": "uint256"
        }
      ],
      "name": "getTicket",
      "outputs": [],
      "stateMutability": "payable",
      "type": "function",
      "payable": true
    },
    {
      "inputs": [],
      "name": "winner",
      "outputs": [
        {
          "internalType": "string",
          "name": "",
          "type": "string"
        },
        {
          "internalType": "uint256",
          "name": "",
          "type": "uint256"
        }
      ],
      "stateMutability": "view",
      "type": "function",
      "constant": true
    }
  ],
  "bytecode": "0x608060405234801561001057600080fd5b506105a6806100206000396000f3fe6080604052600436106100345760003560e01c80637dc379fa14610039578063a4fc147714610055578063dfbf53ae14610092575b600080fd5b610053600480360381019061004e9190610234565b6100be565b005b34801561006157600080fd5b5061007c60048036038101906100779190610234565b610133565b6040516100899190610270565b60405180910390f35b34801561009e57600080fd5b506100a7610151565b6040516100b5929190610324565b60405180910390f35b600a811115610102576040517f08c379a00000000000000000000000000000000000000000000000000000000081526004016100f9906103a0565b60405180910390fd5b6040518060200160405280828152506000808381526020019081526020016000206000820151816000015590505050565b60006020528060005260406000206000915090508060000154905081565b6060600080600a905060008060094233856040516020016101749392919061045b565b6040516020818303038152906040528051906020012060001c61019791906104c7565b905080806101a490610527565b915050600a816101b491906104c7565b9150816040518060400160405280600d81526020017f57696e6e6572206e756d6265720000000000000000000000000000000000000081525090945094505050509091565b600080fd5b6000819050919050565b610211816101fe565b811461021c57600080fd5b50565b60008135905061022e81610208565b92915050565b60006020828403121561024a576102496101f9565b5b60006102588482850161021f565b91505092915050565b61026a816101fe565b82525050565b60006020820190506102856000830184610261565b92915050565b600081519050919050565b600082825260208201905092915050565b60005b838110156102c55780820151818401526020810190506102aa565b838111156102d4576000848401525b50505050565b6000601f19601f8301169050919050565b60006102f68261028b565b6103008185610296565b93506103108185602086016102a7565b610319816102da565b840191505092915050565b6000604082019050818103600083015261033e81856102eb565b905061034d6020830184610261565b9392505050565b7f54656e20706c617965727320616c726561647920726567697374657265642100600082015250565b600061038a601f83610296565b915061039582610354565b602082019050919050565b600060208201905081810360008301526103b98161037d565b9050919050565b6000819050919050565b6103db6103d6826101fe565b6103c0565b82525050565b600073ffffffffffffffffffffffffffffffffffffffff82169050919050565b600061040c826103e1565b9050919050565b60008160601b9050919050565b600061042b82610413565b9050919050565b600061043d82610420565b9050919050565b61045561045082610401565b610432565b82525050565b600061046782866103ca565b6020820191506104778285610444565b60148201915061048782846103ca565b602082019150819050949350505050565b7f4e487b7100000000000000000000000000000000000000000000000000000000600052601260045260246000fd5b60006104d2826101fe565b91506104dd836101fe565b9250826104ed576104ec610498565b5b828206905092915050565b7f4e487b7100000000000000000000000000000000000000000000000000000000600052601160045260246000fd5b6000610532826101fe565b91507fffffffffffffffffffffffffffffffffffffffffffffffffffffffffffffffff821415610565576105646104f8565b5b60018201905091905056fea2646970667358221220721b002ad17b45675af3978480a10f8de44690d56a93ab1fc54ffaadf3fa9f6e64736f6c634300080a0033",
  "immutableReferences": {},
  "source": "// SPDX-License-Identifier: MIT\npragma solidity >=0.4.22 <0.9.0;\n\ncontract RLottery {\n   struct Player{\n     uint num;\n   }\n   mapping(uint => Player) public playeres;\n\n  function getTicket(uint Num)public payable{\n    require(Num <= 10, 'Ten players already registered!');\n    playeres[Num] = Player(Num);\n  }\n\n  function winner()public view returns(string memory, uint){\n    uint length = 10;\n    uint index;\n    uint randomNumber = uint(keccak256(abi.encodePacked(block.timestamp,msg.sender, length))) % 9;\n    randomNumber++;\n    index = randomNumber % 10;\n    return (\"Winner number\", index);\n  }\n}\n",
  "sourcePath": "C:\\Users\\123\\lessons solidity\\SimpleGames\\contracts\\RLottery.sol",
  "compiler": {
    "name": "solc",
    "version": "0.8.10+commit.fc410830.Emscripten.clang"
  },
  "schemaVersion": "3.4.4",
  "updatedAt": "2022-01-06T16:24:08.807Z",
  "networkType": "ethereum",
  "devdoc": {
    "kind": "dev",
    "methods": {},
    "version": 1
  },
  "userdoc": {
    "kind": "user",
    "methods": {},
    "version": 1
  }
}