{
  "contractName": "Address",
  "abi": [
    {
      "inputs": [
        {
          "internalType": "address",
          "name": "userAddress",
          "type": "address"
        }
      ],
      "name": "set",
      "outputs": [],
      "stateMutability": "nonpayable",
      "type": "function"
    },
    {
      "inputs": [
        {
          "internalType": "address",
          "name": "userAddress",
          "type": "address"
        }
      ],
      "name": "get",
      "outputs": [
        {
          "internalType": "uint256",
          "name": "s",
          "type": "uint256"
        }
      ],
      "stateMutability": "view",
      "type": "function"
    },
    {
      "inputs": [],
      "name": "getAll",
      "outputs": [
        {
          "internalType": "address[]",
          "name": "",
          "type": "address[]"
        }
      ],
      "stateMutability": "view",
      "type": "function"
    }
  ],
  "bytecode": "0x608060405234801561001057600080fd5b50610561806100206000396000f3fe608060405234801561001057600080fd5b50600436106100415760003560e01c80632801617e1461004657806353ed514314610062578063c2bc2efc14610080575b600080fd5b610060600480360381019061005b9190610314565b6100b0565b005b61006a61011e565b60405161007791906103ff565b60405180910390f35b61009a60048036038101906100959190610314565b610217565b6040516100a7919061043a565b60405180910390f35b80600080600154815260200190815260200160002060006101000a81548173ffffffffffffffffffffffffffffffffffffffff021916908373ffffffffffffffffffffffffffffffffffffffff1602179055506001600081548092919061011690610484565b919050555050565b6060600060015467ffffffffffffffff81111561013e5761013d6104cd565b5b60405190808252806020026020018201604052801561016c5781602001602082028036833780820191505090505b50905060005b60015481101561020f5760008082815260200190815260200160002060009054906101000a900473ffffffffffffffffffffffffffffffffffffffff168282815181106101c2576101c16104fc565b5b602002602001019073ffffffffffffffffffffffffffffffffffffffff16908173ffffffffffffffffffffffffffffffffffffffff1681525050808061020790610484565b915050610172565b508091505090565b600080600090505b60015481116102aa578273ffffffffffffffffffffffffffffffffffffffff1660008083815260200190815260200160002060009054906101000a900473ffffffffffffffffffffffffffffffffffffffff1673ffffffffffffffffffffffffffffffffffffffff16141561029757809150506102ac565b80806102a290610484565b91505061021f565b505b919050565b600080fd5b600073ffffffffffffffffffffffffffffffffffffffff82169050919050565b60006102e1826102b6565b9050919050565b6102f1816102d6565b81146102fc57600080fd5b50565b60008135905061030e816102e8565b92915050565b60006020828403121561032a576103296102b1565b5b6000610338848285016102ff565b91505092915050565b600081519050919050565b600082825260208201905092915050565b6000819050602082019050919050565b610376816102d6565b82525050565b6000610388838361036d565b60208301905092915050565b6000602082019050919050565b60006103ac82610341565b6103b6818561034c565b93506103c18361035d565b8060005b838110156103f25781516103d9888261037c565b97506103e483610394565b9250506001810190506103c5565b5085935050505092915050565b6000602082019050818103600083015261041981846103a1565b905092915050565b6000819050919050565b61043481610421565b82525050565b600060208201905061044f600083018461042b565b92915050565b7f4e487b7100000000000000000000000000000000000000000000000000000000600052601160045260246000fd5b600061048f82610421565b91507fffffffffffffffffffffffffffffffffffffffffffffffffffffffffffffffff8214156104c2576104c1610455565b5b600182019050919050565b7f4e487b7100000000000000000000000000000000000000000000000000000000600052604160045260246000fd5b7f4e487b7100000000000000000000000000000000000000000000000000000000600052603260045260246000fdfea264697066735822122062ca122906b6d665932653f69fd5f5f164fedc654c605d3200886ef5f838003664736f6c634300080a0033",
  "immutableReferences": {},
  "source": "// SPDX-License-Identifier: MIT\npragma solidity >=0.4.22 <0.9.0;\n\ncontract Address {\n  mapping(uint => address) addresses;\n\n  uint count;\n  \n  function set(address userAddress)public {\n    addresses[count] = userAddress;\n    count++;\n  }\n\n  function get(address userAddress)public view returns (uint s) {\n    for(uint i = 0; i <= count; i++) {\n      if(addresses[i] == userAddress)\n      return i;\n    }\n  }\n\n  function getAll() public view returns(address[] memory ){\n    address[] memory all =   new address[](count);\n    for(uint i = 0;i < count; i++){\n      all[i] = addresses[i];\n    }\n    return all;\n  }\n}\n",
  "sourcePath": "C:\\Users\\123\\lessons solidity\\SimpleData\\contracts\\Address.sol",
  "compiler": {
    "name": "solc",
    "version": "0.8.10+commit.fc410830.Emscripten.clang"
  },
  "schemaVersion": "3.4.4",
  "updatedAt": "2022-01-01T16:59:25.262Z",
  "devdoc": {
    "kind": "dev",
    "methods": {},
    "version": 1
  },
  "userdoc": {
    "kind": "user",
    "methods": {},
    "version": 1
  }
}